{
  "contractName": "Commerce",
  "abi": [
    {
      "inputs": [
        {
          "internalType": "bytes16",
          "name": "product_id",
          "type": "bytes16"
        },
        {
          "internalType": "bytes32",
          "name": "proof",
          "type": "bytes32"
        }
      ],
      "name": "buyProduct",
      "outputs": [],
      "stateMutability": "payable",
      "type": "function",
      "payable": true
    },
    {
      "inputs": [],
      "name": "getTotalProducts",
      "outputs": [
        {
          "internalType": "uint256",
          "name": "",
          "type": "uint256"
        }
      ],
      "stateMutability": "view",
      "type": "function",
      "constant": true
    },
    {
      "inputs": [
        {
          "internalType": "uint256",
          "name": "index",
          "type": "uint256"
        }
      ],
      "name": "getProductHash",
      "outputs": [
        {
          "internalType": "bytes32",
          "name": "",
          "type": "bytes32"
        }
      ],
      "stateMutability": "view",
      "type": "function",
      "constant": true
    },
    {
      "inputs": [
        {
          "internalType": "bytes32",
          "name": "index_hash",
          "type": "bytes32"
        }
      ],
      "name": "getProductByHash",
      "outputs": [
        {
          "components": [
            {
              "internalType": "uint256",
              "name": "id",
              "type": "uint256"
            },
            {
              "internalType": "uint256",
              "name": "price",
              "type": "uint256"
            },
            {
              "internalType": "address",
              "name": "owner",
              "type": "address"
            },
            {
              "internalType": "bytes32",
              "name": "proof",
              "type": "bytes32"
            }
          ],
          "internalType": "struct Commerce.Product",
          "name": "",
          "type": "tuple"
        }
      ],
      "stateMutability": "view",
      "type": "function",
      "constant": true
    }
  ],
  "bytecode": "0x608060405234801561001057600080fd5b50610822806100206000396000f3fe60806040526004361061003f5760003560e01c8063570aea8a146100445780639d58f0da1461006f5780639f11d940146100ac578063ee8bada7146100e9575b600080fd5b34801561005057600080fd5b50610059610105565b60405161006691906103f6565b60405180910390f35b34801561007b57600080fd5b5061009660048036038101906100919190610442565b61010f565b6040516100a39190610488565b60405180910390f35b3480156100b857600080fd5b506100d360048036038101906100ce91906104cf565b61012c565b6040516100e091906105b0565b60405180910390f35b61010360048036038101906100fe9190610623565b6101cd565b005b6000600354905090565b600060026000838152602001908152602001600020549050919050565b61013461039c565b6001600083815260200190815260200160002060405180608001604052908160008201548152602001600182015481526020016002820160009054906101000a900473ffffffffffffffffffffffffffffffffffffffff1673ffffffffffffffffffffffffffffffffffffffff1673ffffffffffffffffffffffffffffffffffffffff1681526020016003820154815250509050919050565b600082336040516020016101e29291906106cc565b6040516020818303038152906040528051906020012090506102038161032e565b15610243576040517f08c379a000000000000000000000000000000000000000000000000000000000815260040161023a90610755565b60405180910390fd5b600060036000815480929190610258906107a4565b91905055905081600260008381526020019081526020016000208190555060405180608001604052808281526020013481526020013373ffffffffffffffffffffffffffffffffffffffff1681526020018481525060016000848152602001908152602001600020600082015181600001556020820151816001015560408201518160020160006101000a81548173ffffffffffffffffffffffffffffffffffffffff021916908373ffffffffffffffffffffffffffffffffffffffff1602179055506060820151816003015590505050505050565b60003373ffffffffffffffffffffffffffffffffffffffff166001600084815260200190815260200160002060020160009054906101000a900473ffffffffffffffffffffffffffffffffffffffff1673ffffffffffffffffffffffffffffffffffffffff16149050919050565b60405180608001604052806000815260200160008152602001600073ffffffffffffffffffffffffffffffffffffffff168152602001600080191681525090565b6000819050919050565b6103f0816103dd565b82525050565b600060208201905061040b60008301846103e7565b92915050565b600080fd5b61041f816103dd565b811461042a57600080fd5b50565b60008135905061043c81610416565b92915050565b60006020828403121561045857610457610411565b5b60006104668482850161042d565b91505092915050565b6000819050919050565b6104828161046f565b82525050565b600060208201905061049d6000830184610479565b92915050565b6104ac8161046f565b81146104b757600080fd5b50565b6000813590506104c9816104a3565b92915050565b6000602082840312156104e5576104e4610411565b5b60006104f3848285016104ba565b91505092915050565b610505816103dd565b82525050565b600073ffffffffffffffffffffffffffffffffffffffff82169050919050565b60006105368261050b565b9050919050565b6105468161052b565b82525050565b6105558161046f565b82525050565b60808201600082015161057160008501826104fc565b50602082015161058460208501826104fc565b506040820151610597604085018261053d565b5060608201516105aa606085018261054c565b50505050565b60006080820190506105c5600083018461055b565b92915050565b60007fffffffffffffffffffffffffffffffff0000000000000000000000000000000082169050919050565b610600816105cb565b811461060b57600080fd5b50565b60008135905061061d816105f7565b92915050565b6000806040838503121561063a57610639610411565b5b60006106488582860161060e565b9250506020610659858286016104ba565b9150509250929050565b6000819050919050565b61067e610679826105cb565b610663565b82525050565b60008160601b9050919050565b600061069c82610684565b9050919050565b60006106ae82610691565b9050919050565b6106c66106c18261052b565b6106a3565b82525050565b60006106d8828561066d565b6010820191506106e882846106b5565b6014820191508190509392505050565b600082825260208201905092915050565b7f50726f6475637420686173206f776e6572000000000000000000000000000000600082015250565b600061073f6011836106f8565b915061074a82610709565b602082019050919050565b6000602082019050818103600083015261076e81610732565b9050919050565b7f4e487b7100000000000000000000000000000000000000000000000000000000600052601160045260246000fd5b60006107af826103dd565b91507fffffffffffffffffffffffffffffffffffffffffffffffffffffffffffffffff82036107e1576107e0610775565b5b60018201905091905056fea2646970667358221220887bc3951d667521394a6c1b06cd8dd87f5bebe7839acfa3dc00550428407b1564736f6c63430008110033",
  "immutableReferences": {},
  "source": "// SPDX-License-Identifier: MIT\r\n// compiler version must be greater than or equal to 0.8.17 and less than 0.9.0\r\npragma solidity >=0.8.17 <0.9.0;\r\n\r\ncontract Commerce {\r\n    struct Product {\r\n        uint id;\r\n        uint price;\r\n        address owner;\r\n        bytes32 proof;\r\n    }\r\n\r\n    //contract owner\r\n    address private owner;\r\n\r\n    //mapping product_hash to Product\r\n    mapping(bytes32 => Product) private owned_products;\r\n\r\n    //mapping product_id to product_hash\r\n    mapping(uint => bytes32) private owned_product_hash;\r\n\r\n    //total products\r\n    uint private totalProducts;\r\n\r\n    function buyProduct(bytes16 product_id, bytes32 proof) external payable {\r\n        bytes32 product_hash = keccak256(\r\n            abi.encodePacked(product_id, msg.sender)\r\n        );\r\n        if (hasOwner(product_hash)) {\r\n            revert(\"Product has owner\");\r\n        }\r\n        uint id = totalProducts++;\r\n        owned_product_hash[id] = product_hash;\r\n        owned_products[product_hash] = Product({\r\n            id: id,\r\n            price: msg.value,\r\n            proof: proof,\r\n            owner: msg.sender\r\n        });\r\n    }\r\n\r\n    function getTotalProducts() external view returns (uint) {\r\n        return totalProducts;\r\n    }\r\n\r\n    function getProductHash(uint index) external view returns (bytes32) {\r\n        return owned_product_hash[index];\r\n    }\r\n\r\n    function getProductByHash(\r\n        bytes32 index_hash\r\n    ) external view returns (Product memory) {\r\n        return owned_products[index_hash];\r\n    }\r\n\r\n    function hasOwner(bytes32 product_hash) private view returns (bool) {\r\n        return owned_products[product_hash].owner == msg.sender;\r\n    }\r\n}\r\n",
  "sourcePath": "C:\\Users\\User\\Desktop\\ecommerce-web3\\contracts\\Commerce.sol",
  "compiler": {
    "name": "solc",
    "version": "0.8.17+commit.8df45f5f.Emscripten.clang"
  },
  "schemaVersion": "3.4.14",
  "updatedAt": "2023-06-11T19:54:47.110Z",
  "networkType": "ethereum",
  "devdoc": {
    "kind": "dev",
    "methods": {},
    "version": 1
  },
  "userdoc": {
    "kind": "user",
    "methods": {},
    "version": 1
  }
}